:020000040800F2
:1000000018080020390100083F090008A508000869
:100010003D090008D7010008D91A000800000000B7
:10002000000000000000000000000000A90E000811
:10003000C906000800000000010B0008A515000813
:100040005301000853010008530100085301000840
:100050005301000853010008530100085301000830
:100060005301000853010008530100085301000820
:100070005301000853010008530100085301000810
:100080005301000853010008530100085301000800
:10009000611A0008530100085301000853010008C9
:1000A00053010008530100085301000853010008E0
:1000B00053010008530100085301000853010008D0
:1000C00053010008530100085301000853010008C0
:1000D000530100085301000853010008FD150008F2
:1000E000530100085301000881180008530100085B
:1000F0005301000853010008530100085301000890
:10010000530100085301000853010008530100087F
:10011000530100085301000853010008530100086F
:1001200053010008DFF80CD000F018F80048004731
:10013000D11D0008180800200648804706480047DF
:10014000FEE7FEE7FEE7FEE7FEE7FEE7FEE7FEE787
:10015000FEE7FEE7A915000825010008064C074D3B
:1001600006E0E06840F0010394E807009847103487
:10017000AC42F6D3FFF7DAFF9C1F0008BC1F000853
:1001800070B58C1810F8015B15F0070301D110F859
:10019000013B2A1106D110F8012B03E010F8016B86
:1001A00001F8016B5B1EF9D12B0705D40023521E09
:1001B0000DD401F8013BFAE710F8013BCB1A921C71
:1001C00003E013F8015B01F8015B521EF9D5A1426F
:1001D000D8D3002070BDFEE7C1B2000A40EA01207A
:1001E000704700002DE9F84F0020ADF80000DFF85F
:1001F00034A14BF6BF7648F280074A4D4A4C40F690
:100200008F7848F60F7BDFF824910AF1440A31E039
:100210000888474A10F00F00107034D0454901EBB0
:100220008001D1F8002CADF80020BDF800201204A8
:100230000BD5D1F8002C02EA0802C1F8002C3E4987
:1002400001EB800050F8040C8047BDF80000000668
:1002500010D537483749007801EB8001D1F8002CE0
:1002600002EA0B02C1F8002C344901EB800050F87F
:10027000040C8047DAF800004946A9F800000004A1
:10028000C6D4BDE8F88F28682080208800F03000B0
:100290006080208800F4405020802868304080F43E
:1002A000005080F02000384328600888C006286885
:1002B00015D400EA0B00286000F0F6FA26E0218849
:1002C000890401D580F400506188C90626D461886C
:1002D000890601D580F0200038432860D1E7ADF8C9
:1002E0000000BDF80000000506D5286800EA0800F7
:1002F000286000F051FF09E0BDF800000004B9D506
:10030000286800EA0800286000F0C6FB28682188F9
:100310003040C904D3D580F48050D0E780F010007D
:10032000D5E70000005C0040340000207A00002087
:100330004000002000500040A00000208400002069
:10034000810008480844D0F8001C490409D5D0F8B9
:10035000001C48F68F7211404CF280021143C0F825
:10036000001C704700500040810008480844D0F845
:10037000001C490609D5D0F8001C48F68F721140C0
:1003800048F2C0021143C0F8001C70470050004002
:10039000810006480144D1F8000C48F68F621040F5
:1003A00048F280021043C1F8000C70470050004032
:1003B0002DE9F047DFF89480254F4FF03009D8F849
:1003C000001001F11005088A0E7A08B9042E04D035
:1003D000AC88A04215D8042614E01E4801780129F3
:1003E00003D00726102038802BE01B4A002112681A
:1003F0001A4B120403EBD2325160A7F8009001703F
:100400001FE00226844200D90446A9682046884796
:100410008246002000F0D6F901462246504601F0FF
:100420005DFB2146002000F0E5FD2888001B2880A8
:10043000688820446880A7F8009009494FF440502C
:100440000880D8F800000672BDE8F087440000205C
:100450003600002038000020505C00400060004062
:10046000340000202DE9F0472A4EDFF8AC802B4FF6
:1004700035684FF0300935F8100FA968A9B100B3FD
:10048000AC88844200D904462046884782462888A2
:10049000001B2880688820446880002000F072F9E2
:1004A00001462246504600F01BFB288848B14FF415
:1004B0004051A8F800100021084600F09BFDA7F865
:1004C00000902888A988884201D3032001E020B148
:1004D000052031680872BDE8F0873168062008728F
:1004E0000F480068806880473068007A08280AD082
:1004F0000C49002009680C4A090402EBD13148601C
:1005000048463880E7E74FF48051A8F800101020E3
:10051000F7E70000440000203400002036000020EF
:1005200048000020505C004000600040F8B55D4C81
:100530005D4D09262068002729684278062A05D0E3
:10054000AAB1082A4DD00A2A50D06BE00278520690
:1005500068D18078012804D0022804D0032804D070
:1005600060E0C96956E0096A54E0496A52E042888D
:10057000B2BBC288022A55D102798ABB02785306DF
:1005800001D1838833B102F07F02012A04D0022A0C
:100590000CD047E045493DE08A6940790021904709
:1005A000F0B92068807A0028F4D13BE0417901F06D
:1005B0000F0001F070020B063D4901EB8001D1F8FC
:1005C000001C03D5C1F30111090102E0C1F301319F
:1005D0000903384B1B78834224D90AB90029D9D1A1
:1005E00020E0007840061DD1334913E0027802F084
:1005F0007F02012A16D1827AA2B1428892B9027989
:1006000082B9C288012A0DD18A69407900219047B8
:1006100040B92A4931B1206847828161002088476A
:10062000002006E029682068096940788847032887
:1006300013D021680A8AA2F57F43FF3B0BD0022822
:100640000ED06AB10878000626D5C888009082428C
:100650000AD9088218E00E72F8BD20680672F8BD4B
:100660004FF008000872F8BD0ED22868144B90F8BD
:100670002C00824201D21F7006E0B2FBF0F400FBB6
:10068000142008B901201870286890F82C0088827E
:10069000BDE8F840FFF78CBE03200872094900034B
:1006A0000880F8BD440000204800002069130008BD
:1006B0000050004038010020FD12000841130008DE
:1006C0003800002034000020704701F01DBA0000FF
:1006D00010B50649032001F0D5F9C1B2034801F075
:1006E000E3F9BDE81040032000F062BCB403002031
:1006F000014908607047000014040140F0B5002370
:1007000001244FF0030E00BF0D6804FA03F21540F8
:10071000954222D106685D000EFA05FC0F7926EAA3
:100720000C06AF40374307600E79012E01D0022E30
:100730000CD186684F7926EA0C06AF4037438760B4
:10074000868896438A799A4032438280C668CA79FD
:1007500026EA0C06AA403243C2605B1C102BD3D39E
:10076000F0BD4B07DB0E9A40C90810B500EB8100C5
:10077000016A0F249C40A1430162016A1143016296
:1007800010BD00000549096889B201EBC0000449A9
:1007900001EB4000008980B270470000505C0040CF
:1007A000006000400549096889B201EBC0000449B6
:1007B00001EB40008089C0F309007047505C0040A5
:1007C000006000400449096889B201EBC000034998
:1007D00031F8100080B27047505C0040006000406B
:1007E000094810B5D0E91414406E08180BD008223F
:1007F000064900F087F8054920460422BDE810406C
:10080000103100F07FB810BD0000F81F5E0000201E
:1008100070B51E4B187801280DD01D4900260868B8
:10082000B0F5007F00D10E601A4A086814681A4AB1
:10083000A04201D11E7070BD02D9C0F5007401E064
:10084000A4EB000425461460144C402D608006D9AA
:10085000402640302680403D0860156003E025803A
:10086000284408601660012018700D4861882288AD
:100870000844C02101F032F92188012000F0BAFBC0
:10088000BDE87040012000F0DBBB00006C010020DF
:100890006401002060010020680100205200002057
:1008A000B4010020FEE7000010B5134C2068017A67
:1008B000022904D0042902D0062905D015E0FFF74B
:1008C00077FD2068007A11E04178052909D1017887
:1008D000490606D1C07800F0FFFA08480068006AAF
:1008E00080470748006880688047082021680872B0
:1008F000BDE8104000F006B9440000204C00002084
:1009000048000020F0B500230A24302537261F4672
:1009100011E000BFB4EB107F02D905EB107C01E0C1
:1009200006EB107C01F813C001EB430C00015B1CCB
:100930008CF80170DBB29342ECD3F0BDFEE7704758
:100940007047000030B50F22C47801780123FCB154
:10095000144C246801F1E02104F4E064C4F5E0647F
:10096000C4F30724C4F10405E2404478AC40857820
:10097000154025432A0181F80024007800F01F016A
:100980008B404009800000F1E020C0F8003130BD0C
:1009900001F01F0083404809800000F1E020C0F80A
:1009A000803130BD0CED00E0024908430249086087
:1009B000704700000000FA050CED00E070B5304D06
:1009C0004FF000062868017844784A0606D001F006
:1009D0007F0001282AD002282DD037E0092C06D02C
:1009E000052C07D0032C0ED0012C14D02EE000F0E3
:1009F00005FD2AE0C1787F2930D8817871BB8188D4
:100A000061BB807A29E0C17801291FD18088E8B9CB
:100A100000F010FD19E0C178012917D18188A9B92A
:100A2000407A800612D51748466009E00B2C0DD19C
:100A300000F056FD09E0012C02D0032C03D005E0A4
:100A400000F0DEFB01E000F007FD58B10E49204642
:100A5000096849698847032802D018B108200CE0CA
:100A600009200AE0094906200968094A090402EB3D
:100A7000D131084A4E60302111802968087270BD5A
:100A8000440000203800002048000020505C004056
:100A9000006000403600002010B50F4C2068007A3E
:100AA000022811D004280FD0032804D0052802D032
:100AB000072805D008E0FFF7D5FC2068007A04E09D
:100AC00006480068C0688047082021680872BDE8B1
:100AD000104000F017B8000044000020480000203B
:100AE000064B521C520803EB410105D031F8043B80
:100AF00020F8023B521EF9D1704700000060004010
:100B0000704700000C4810B590F82C10002000F041
:100B100017FA0A480068007A082802D0092809D084
:100B200006E007494FF480500880064910200880ED
:100B3000002010BD012010BDE8000020440000206E
:100B4000340000203600002070B5012000F094FE33
:100B5000084C01202060084D002028802060201DC6
:100B60000068002000F08CFA4FF4E05028802060EC
:100B7000002070BD405C004050000020044A002965
:100B8000116801D0014300E081431160704700000B
:100B90001C380240044A0029116801D0014300E0DA
:100BA000814311607047000024380240044A002944
:100BB000116801D0014300E08143116070470000DB
:100BC0002038024030B5254A1168A2F1040411F022
:100BD0000C034FF4004105D0042B09D0082B09D099
:100BE0000C2B09D02368C3F342335B1C994018E0F7
:100BF0001B4916E01B4914E01168136801F47011D9
:100C0000194C03F4400304EB91410978012404EBEF
:100C10009353146814F4803F1DD0124C6143B1FB10
:100C2000F3F1016011680F2303EA11110E4B093330
:100C30005C5C0168E14041601468072505EA142402
:100C40001C5D21FA04F48460126805EAD2229A5CE1
:100C5000D140C16030BD024CE0E7000008380240DE
:100C60000024F40000127A006E010020F0B5214A41
:100C7000072800D0107016781E4B06250521042485
:100C80001D48062E0AD2DFE806F0030B10151D26BC
:100C9000586808B11170F0BD00F030F81570F0BD63
:100CA00000F02CF81470012022E002205070032084
:100CB0001070F0BD5078401E507050780028F8D168
:100CC0001470F0BD03689BB243F010030360117011
:100CD0000A205070F0BD5178491E5170517800299A
:100CE000F8D1016889B221F010010160157000206F
:100CF0005860F0BDC4000020405C0040044801681A
:100D000089B221F0040101604FF43F410160704756
:100D1000405C004007480068052809D10648016882
:100D2000491C0160062903D100210160FFF770BD55
:100D300070470000BC000020580000202DE9FC4155
:100D4000884604462E492E48091D50F8240051F8C3
:100D5000241008430121FFF711FF2A4D28482A4A91
:100D600055F82410001F914250F824004FF0010163
:100D700002D1FFF71BFF01E0FFF70CFF2048214ED7
:100D80000A38361D025D801E015D56F82400FFF70B
:100D9000E8FC1B48371D0938025D801E015D57F8CD
:100DA0002400FFF7DEFC16486946083830F81400C6
:100DB000009002208DF8040003208DF8050000202B
:100DC0008DF8060001208DF8070056F82400FFF783
:100DD00095FC0B486946801F30F81400009057F8C6
:100DE0002400FFF78BFC55F82400414600F0C4FCBA
:100DF00055F82400012100F019FCBDE8FC81000039
:100E0000841E000800000020003801407CB5044624
:100E10001048012150F82400FFF7B0FE0D4D0E4E92
:100E20000A3D694635F81400009001208DF8040051
:100E300000208DF806008DF8070003208DF80500CE
:100E400056F82400FFF75AFC56F8241035F8140021
:100E500008837CBDA81E00080C0000200349044A3A
:100E600031F8101052F82000018370479E1E0008D0
:100E70000C0000200349044A31F8101052F82000F9
:100E8000418370479E1E00080C000020044951F861
:100E900020108A8A034B33F8100042408A82704740
:100EA0000C0000209E1E0008704700000549002825
:100EB000486802D040F0010001E020F001004860E5
:100EC0007047000000000140024920F00700086060
:100ED00070470000505C0040F0B50E490E4D48F6DA
:100EE0008F770B78002148F2800C0BE0CEB205EB37
:100EF0008604D4F8002C3A40324342EA0C02C4F88B
:100F0000002C491C9942F1D3044940F0800008604C
:100F1000F0BD000038010020005000404C5C004053
:100F2000054A21F00101126892B202EBC000034AA7
:100F300002EB400081607047505C00400060004060
:100F40000D4A12683E2992B202EBC0000B4A02EB36
:100F5000400209D94809C90601D1401E80B24FF4A8
:100F6000004141EA802004E04808C90700D0401C45
:100F70008002106070470000505C00400C60004030
:100F800082000A480244D2F8000C4BF68F731840D6
:100F9000CB0401D580F48050890401D580F4005041
:100FA00048F280010843C2F8000C7047005000402E
:100FB000810007480144D1F8000C4BF68F721040B5
:100FC00080F4405048F280021043C1F8000C704792
:100FD00000500040054A21F00101126892B202EB74
:100FE000C000034A42F8101070470000505C0040F7
:100FF00000600040044A126892B202EBC000034A4B
:1010000002EB400041607047505C004000600040CF
:1010100082000A480244D2F8000C48F6BF73184018
:10102000CB0601D580F01000890601D580F02000A4
:1010300048F280010843C2F8000C7047005000409D
:10104000810007480144D1F8000C48F6BF721040F7
:1010500080F0300048F280021043C1F8000C704765
:1010600000500040820005480244D2F8000C48F6C7
:101070008F1318400843C2F8000C7047005000401E
:101080000149086070470000445C00400CB5002036
:101090002C49019000900A6842F480320A604FF4B3
:1010A000A0430A6802F400320092019A521C019295
:1010B000009A12B9019A9A42F3D10A6892033FD575
:1010C000012000902048026842F004020260026899
:1010D00042F002020260026842F001020260194816
:1010E0002430026842F080520260C2141748026045
:1010F0004268D206FCD413480830026802600268D5
:10110000026002680260026822F47D0202600268E6
:1011100042F4110202600A6842F080720A600A68B2
:101120009201FCD5016821F003010160016841F0E2
:10113000030101600168C1F381010329FAD10CBDEB
:1011400000900CBD00380240003C0240007000409E
:101150001CB501210846FFF711FD4FF4C050009067
:1011600003208DF8050000208DF8040001208DF883
:10117000070069460548FFF7C1FA4FF6FF700121E5
:1011800000900846FFF712FD1CBD00000000024061
:101190000121C805FFF7FEBC70B516480068174D61
:1011A0000004C10B14480144098989B200EB4104D1
:1011B0002868017A09290FD021780170617841707F
:1011C000A088FFF709F8296848802089FFF704F80C
:1011D00029688880A089C880286801210172C08898
:1011E00028B1FFF7A3F9BDE87040FFF78BBCFFF70C
:1011F000E5FBF8E7505C0040006000404400002040
:101200002DE9F04138480068017811F07F0102D0E3
:10121000022905D066E0417A01F0DF0141724EE01B
:10122000418800295ED10179F1BB4179304D21F02F
:1012300080040A0605EB84022C4BD2F8002C03D55F
:10124000C2F30112120102E0C2F3013212031E784E
:101250002346A64246D93AB3807A28B308064FEA15
:1012600084000ED52844D0F8000CC0F301100128EA
:1012700021D11846FFF778F820463021FFF7C8FE45
:1012800019E04619D6F8000CC0F30130012812D13C
:101290004BF68F7748F28008A4B11846FFF750F854
:1012A000D6F8000C384000E01CE080F4405040EAE2
:1012B0000800C6F8000C0F4800684069804700200D
:1012C000BDE8F0810C4890F82C100020FFF738FEA4
:1012D000D5F8000C384080F4405040EA0800C5F8CA
:1012E000000CE8E70220EBE7440000203801002072
:1012F000005000404C000020E800002010B5074CD2
:1013000030B1074800680068804720680A3010BD87
:10131000216801200882002010BD00004400002048
:101320004C000020054A13685A8A10B1086810441E
:1013300070478888801A1882002070474400002077
:1013400010B5074C30B107480068806880472068B6
:101350000C3010BD216801200882002010BD000063
:10136000440000204C000020204910B5096860B1FD
:101370001F48002202800A7853060AD002F07F023A
:10138000012A16D0022A16D001E00220088200208D
:1013900010BD497A8A06027802D542F0020201E0C5
:1013A00002F0FD0249060270D1B211D401F0FE0133
:1013B00010E00F4810BD4A79110713060D4A02EBE1
:1013C0009161D1F8001C07D5C1F3011106E0017845
:1013D00041F00101017003E0C1F301310129F6D0B0
:1013E0000548006800698047E3E7000044000020EA
:1013F0003A000020005000404C0000200A4810B580
:1014000000680A4AC1785278914203D882780AB9B2
:1014100082880AB1022010BD8172054800684068C8
:101420008047002010BD000044000020380100204B
:101430004C000020064810B50068417A41F02001B8
:10144000417204480068C0698047002010BD000058
:10145000440000204C00002070B51D481D4D03685D
:10146000597921F0800005EB80000C06D0F8004C83
:1014700021F0800203D5C4F30114240102E0C4F377
:1014800001342403144D2D78954210D95A8872B92D
:101490006CB19A7A5AB10906D0F8001C48F2800261
:1014A00007D548F6BF73194081F0100106E002200D
:1014B00070BD4BF68F73194081F480511143C0F811
:1014C000001C0648006880698047002070BD00004D
:1014D0004400002000500040380100204C00002053
:1014E00010B50E4C0E4A20681268C1789269407996
:1014F000904721688A7A22B118B9087908B98878A2
:1015000008B1022010BD07480068C0688047206805
:101510004179C172C1780173002010BD44000020E0
:10152000480000204C00002070B51B4900200A68CC
:101530001A4B94B21A4A00BF03EB8005D5F8005C41
:10154000ADB242F82050401C0828F5D344F4806026
:10155000086040F00100086020F001040C600E48B3
:10156000001D05686D05FCD54FF6FF3505600020B0
:1015700052F8205003EB8006ADB2C6F8005C401C68
:101580000828F5D344F008000860086880B240F0ED
:101590000400086070BD0000405C00400050004046
:1015A000F403002070470000104810B5016841F4B2
:1015B000807101600D4908310A680D4B1A400A60BC
:1015C00002680C4B1A400260026822F4802202601A
:1015D000086820F47D000860091D00200860FFF7FE
:1015E00055FD05494FF00060086010BD003802400D
:1015F0000CC0FF88FEFFFEEE08ED00E010B50A4CBF
:1016000040F22551204600F080F808B100F00EF9B4
:101610000821204600F072F8002804D02046BDE8DA
:10162000104000F0FBB810BD00480040002981893F
:1016300002D041F4005101E021F400518181704752
:101640001E4A10B513791E48002123B1012B04D086
:10165000022B1CD104E0C18005E04FF4405301E0AF
:101660004FF40053C380537923B1012B04D0022BD4
:101670000DD104E0018105E04FF4806301E04FF4F7
:10168000C06303819379072B0BD0082B03D000F0A4
:1016900019F8002010BD03891BB14FF480538380DB
:1016A00000E081801268026081810C21418104493F
:1016B0000020FFF743FB012010BD0000D0000020F8
:1016C000A40100200B4810B54FF4E1310160002166
:1016D0008180C180018181810C21418101460020EE
:1016E000FFF72CFBBDE81040012240F225510248D3
:1016F00000F02AB8A4010020004800400246002063
:1017000012880A4200D00120704730B501F01F0254
:1017100001240025C1F3421304FA02F2012B0FD079
:10172000022B0FD0838A4FEA11210088134204FA5A
:1017300001F400EA040001D000B10125284630BDC3
:101740008389F0E7038AEEE710B5C1F3421301F095
:101750001F040121A140012B07D0022B07D0143018
:10176000002A026805D00A4304E00C30F8E7103084
:10177000F6E78A43026010BD7FB50446008A0D4635
:1017800020F44051E88808432082A08941F20C618E
:101790008843A9882A8911436A8902431143A18198
:1017A000A08A20F44071A8890843A0826846FFF708
:1017B00009FA1948844201D1039800E00298A189EE
:1017C000090400EBC00101EB0010296801D54900B4
:1017D00000E08900B0FBF1F06422B0FBF2F10901F6
:1017E0000B096FF018056B4300EB8300A3891D0400
:1017F0004FF0320306D503EBC000B0FBF2F000F06F
:10180000070005E003EB0010B0FBF2F000F00F0062
:10181000084320817FBD0000003801408088C0F36C
:1018200008007047C1F308018180704770B50E4809
:101830000F4D104C81790D48072902D0082905D099
:1018400008E0FFF7EBFF00F07F0001E0FFF7E6FFA5
:10185000216868542068401C2060B0F5007F01D1E9
:101860000020206070BD0000D00000200048004033
:10187000B40100206001002000B10120FFF716BB79
:101880004FF48020FEF734BF06480549022201606C
:101890000A72064A0449C0E90112086800470000BC
:1018A0008801002044000020E80000203C010020C6
:1018B00038B54FF4A060FFF777F814208DF80000DA
:1018C00002208DF8010000248DF8024001258DF8DA
:1018D00003506846FFF736F82A208DF800000420F0
:1018E0008DF801008DF803506846FFF72BF827208C
:1018F0008DF800008DF801406846FFF723F81120AD
:101900008DF800008DF801406846FFF71BF838BDE0
:101910002DE9F0414C4E88B0002430684B4D688072
:1019200068884B4F39880840800507D54FF6FF502F
:1019300030602878401C2870FFF7ECF968883988F7
:101940000840000401D5FEF74DFC688839884FF641
:10195000FF380840400504D5C6F800803D4840687F
:101960008047698838880140890402D54DF6FF71A7
:10197000316069880140C80405D54EF6FF703060BB
:101980000020FFF773F968883988084000050BD5F7
:101990003148007810B1FFF7C7FD02E00220FFF7E1
:1019A00065F94FF2FF703060688839880840C005DB
:1019B00046D54FF6FF6030602348001D00684FF0A9
:1019C0000002000438D56868401C68606868032815
:1019D00033D91D48001F016809072ED4016889B258
:1019E000A9601E494FEA0D0301EB8407D7F8007C7C
:1019F000BFB243F82470641C082CF5D3AC6844F0E3
:101A00000104AC60AC68A4B20460AC6824F00104CA
:101A1000AC60AC68A4B2046030684005FCD5C6F880
:101A20000080002053F8204001EB8006A4B2C6F8E5
:101A3000004C401C0828F5D36A600720FFF716F910
:101A400008B0BDE8F0810000445C00407800002050
:101A500050000020E8000020C0000020005000409E
:101A6000FFF756BF05490020086005494FF43F4085
:101A700008800249091F086000207047445C00404C
:101A80005000002070B500F07F060D463046FEF78E
:101A900089FE04463046FEF775FE0146224628467A
:101AA000FFF71EF8204670BD2DE9F0410E460746AF
:101AB0000024084D0AE0395D2846FFF7B3FE802177
:101AC0002846FFF71BFE0028F9D0641CB442F2D36D
:101AD000BDE8F08100480040FEE70000094B10B56A
:101AE000521C520803EB41010AD000BF10F8013B21
:101AF000521E10F8014B43EA042321F8043BF5D1B0
:101B000010BD000000600040AFF3008070B51448C5
:101B1000017801290FD1134C0026236853B11249D3
:101B2000402B086882B207D940304025403B08600E
:101B3000236005E0067070BD184408609DB2266001
:101B40000A48C02110442A46FFF7C8FF2946012051
:101B5000FFF750FABDE870400120FFF771BA0000AE
:101B60006C0100206801002064010020B401002005
:101B7000104A10B500211268212802D0202807D071
:101B800016E0107800F07F00212811D10A4908E002
:101B9000107800F07F00212800D10849084B202050
:101BA000187029B10020916150828847002010BD33
:101BB000022010BD44000020DD1B0008511D00085C
:101BC000CC0000200149FFF7ADBB0000E000002081
:101BD0000149FFF7A7BB0000D800002008B1044866
:101BE00070470449082009680882002070470000F7
:101BF000D00000204400002005490968C978042964
:101C000001D300207047034A02EBC101FFF78ABBF2
:101C1000440000201801002009B9012801D9022040
:101C2000704700207047000007490968097801F0F3
:101C30007F01212903D1022803D0222801D00220CC
:101C4000704700207047000044000020334810B562
:101C50000068334A00218172D2794272C17208460B
:101C6000FFF732F94FF400710020FFF7FBF9102164
:101C70000020FFF7CDF940210020FFF751F9802126
:101C80000020FFF7A7F90020FEF782FB254890F817
:101C90002C100020FFF754F90020FFF789F90021EC
:101CA0000120FFF7DFF9C0210120FFF793F9202180
:101CB0000120FFF7ADF900210120FFF761F94FF492
:101CC000C0610220FFF7CEF94FF480710220FFF7C8
:101CD00081F900210220FFF753F920210220FFF7AC
:101CE00097F900210320FFF7BDF94FF48871032015
:101CF000FFF716F940210320FFF722F94FF4405176
:101D00000320FFF73DF900210320FFF781F90020B0
:101D1000FFF7E2F804490120086010BD44000020EC
:101D2000FA1E0008E8000020BC0000200348807A6A
:101D3000002802D002490520086070478801002071
:101D4000BC0000200149042008607047BC0000204E
:101D500008B1044870470449082009680882002037
:101D600070470000D00000204400002010B5044C53
:101D70002078202803D1FFF763FC0020207010BDDD
:101D8000CC0000207047000010B5FEF729FD064882
:101D9000002400688472FEF7D7FEFFF763FEFFF7AA
:101DA00091FC0248046010BD44000020BC000020EB
:101DB00002E008C8121F08C1002AFAD17047704714
:101DC000002001E001C1121F002AFBD17047000072
:101DD00008B50120FFF71AF80120FFF74BF80220A1
:101DE000FFF714F8FFF7B4F9FFF7D2F9FFF760FD3A
:101DF000FFF74AFD0020FFF709F81C4C1C4E1D4D53
:101E0000002700970098401C0090A842FAD3307831
:101E100000284FF0000025D0FFF72CF82078C028CC
:101E2000EFD160784028ECD1A0781228E9D1E07891
:101E30002028E6D120795528E3D160795528E0D1D2
:101E400030780028DDD1012030700220FFF712F831
:101E500000970098401C0090A842FAD30220FEF799
:101E6000FDFFCEE7FFF712F8D8E70000B40300202B
:101E70006D01002020A107000A0B070700040008DD
:101E80000000040002000000020000000007070735
:101E900007070007060B080D061717281728080064
:101EA000040000100080000001000000010000009C
:101EB00002000000800000000100800040000008D7
:101EC00000010020010000008000000080000000F0
:101ED0008000000080000000800000000100800001
:101EE000400000080001002012010002020202402E
:101EF000830440570002010203010902430002016A
:101F000000C0320904000001020201000524001093
:101F10000105240100010424020205240600010732
:101F20000582030800FF09040100020A00000007FF
:101F30000503024000000705810240000004030978
:101F4000042603530054004D006900630072006FC3
:101F50000065006C0065006300740072006F006E25
:101F6000006900630073003203530054004D0033D6
:101F70000032002000560069007200740075006194
:101F8000006C00200043004F004D00200050006F07
:101F9000007200740020002000000000BC1F000838
:101FA0000000002088010000800100086020000877
:101FB0008801002090060000C01D00081112481280
:101FC000404B040204115904290C5A1C0C2908E93D
:101FD000040127141A03531254124D1233021D32F6
:101FE00013CB060C1C084109040A11D1244102102C
:101FF000012AC212120813E81E3308121AFA083214
:102000004313891D14084D1C1B086D081A85041301
:10201000711B1B0829101A19041AD10C1AC5041AAD
:10202000F9044129E1133D1F3308041A41083226FF
:102030001A670829C6225C33201A1A046729841AF1
:102040002D4C0916B41A451CE1380A030406080C85
:1020500010182030BB2C02030404150607080900E1
:0400000508000125C9
:00000001FF
